:100000000C942A000C9447000C9447000C94470071
:100010000C9447000C9447000C9447000C94470044
:100020000C9447000C9447000C94E4020C94470095
:100030000C9447000C9447000C9447000C94470024
:100040000C9447000C9447000C9447000C94470014
:100050000C94470011241FBECFE5D8E0DEBFCDBF12
:1000600010E0A0E6B0E0E4EFF7E002C005900D92EA
:10007000AC3CB107D9F720E0ACECB0E001C01D9278
:10008000AD3CB207E1F70E94EF000C94F8030C942A
:10009000000041E060E082E40E9465038FE99FE098
:1000A0000197F1F700C0000040E060E082E40E94A8
:1000B00065038FE99FE00197F1F700C00000089504
:1000C000682F81E40E94D50340E061E082E40E9451
:1000D00065030E944900089541E060E081E40E94C8
:1000E000F50241E061E081E40E94F50241E062E056
:1000F00081E40E94F50241E063E081E40E94F502A0
:1001000041E064E081E40E94F50241E065E081E4C1
:100110000E94F50241E066E081E40E94F50241E0C0
:1001200067E081E40E94F50241E060E082E40E9421
:10013000F50241E062E082E40E94F50241E061E004
:1001400082E40E94F50240E062E082E40E946503DE
:1001500088E30E94600081E00E9460008EE00E94BF
:1001600060008FE19EE40197F1F700C00000089560
:10017000682F81E40E94D50341E061E082E40E949F
:1001800065030E9449000895CF93DF93EC0103C0FB
:100190000E94B800219688818111FACFDF91CF911A
:1001A000089581E00E9460000895813019F48FE77E
:1001B000860F06C0823019F48FEB860F01C080E8ED
:1001C0000E946000089541E00E94F502089541E018
:1001D0000E946503089540E00E946503089560E071
:1001E00084E40E94E30061E084E40E94E30062E0B2
:1001F00084E40E94E30063E084E40E94E30064E09E
:1002000084E40E94E30065E084E40E94E30060E08F
:1002100083E40E94E30061E083E40E94E30062E083
:1002200083E40E94E30063E083E40E94E30064E06F
:1002300083E40E94E30065E083E40E94E3000E94FF
:100240006C000E94E80385E0809363008093620065
:1002500080936100809360000E94D10084E690E06A
:100260000E94C40061E082E00E94D50086E790E031
:100270000E94C4002FEF80E792E021508040904020
:10028000E1F700C000000E94D10085E890E00E94E4
:10029000C40060E084E40E94E70064E084E40E941B
:1002A000E70062E083E40E94E70065E083E40E94E7
:1002B000E70022C09091CC009A30F0F01092CC0070
:1002C0008150809363006AE081E00E94D50080E263
:1002D0000E94B800809163009DEC899F912D1124AC
:1002E000969596959695990F292F220F220F920F8A
:1002F000891B805D0E94B800809163008111DACF74
:100300002FEF80E792E0215080409040E1F700C05D
:10031000000062E084E40E94E70063E084E40E945D
:10032000E70061E083E40E94E70065E083E40E9467
:10033000E70060E084E40E94EB0064E084E40E9453
:10034000EB0062E083E40E94EB000E94D10085E9AB
:1003500090E00E94C40061E082E00E94D50086E740
:1003600090E00E94C4002FEF80E792E0215080408F
:100370009040E1F700C000000E94D10085E890E0C5
:100380000E94C40022C09091CC009A30F0F01092EC
:10039000CC008150809362006AE081E00E94D50029
:1003A00080E20E94B800809162009DEC899F912DAF
:1003B0001124969596959695990F292F220F220F25
:1003C000920F891B805D0E94B800809162008111AC
:1003D000DACF2FEF80E792E0215080409040E1F7A4
:1003E00000C0000062E084E40E94E70065E084E46D
:1003F0000E94E70060E083E40E94E70064E083E499
:100400000E94E70064E084E40E94EB0061E083E482
:100410000E94EB0063E084E40E94EB0065E083E46B
:100420000E94EB000E94D10088EA90E00E94C40084
:1004300061E082E00E94D50086E790E00E94C4005F
:100440002FEF80E792E0215080409040E1F700C01C
:1004500000000E94D10085E890E00E94C40022C004
:100460009091CC009A30F0F01092CC0081508093A3
:1004700061006AE081E00E94D50080E20E94B8003D
:10048000809161009DEC899F912D11249695969500
:100490009695990F292F220F220F920F891B805DAD
:1004A0000E94B800809161008111DACF2FEF80E7C0
:1004B00092E0215080409040E1F700C0000061E0F0
:1004C00084E40E94E70062E083E40E94E70063E0C6
:1004D00083E40E94E70062E084E40E94EB0060E0B5
:1004E00084E40E94EB0064E084E40E94EB0060E09E
:1004F00083E40E94EB0064E083E40E94EB000E942E
:10050000D1008AEB90E00E94C40061E082E00E948A
:10051000D50086E790E00E94C4002FEF80E792E0CC
:10052000215080409040E1F700C000000E94D100BF
:1005300085E890E00E94C40029C09091CC009A30D8
:1005400028F18150809360006AE081E00E94D5002C
:1005500080E20E94B800809160009DEC899F912DFF
:100560001124969596959695990F292F220F220F73
:10057000920F891B805D0E94B8002FEF80E792E008
:10058000215080409040E1F700C000008091600061
:100590008111D3CF2FEF84E39CE021508040904025
:1005A000E1F700C0000061E084E40E94EB0065E038
:1005B00084E40E94EB0063E083E40E94EB0064E0CB
:1005C00083E40E94EB003FCE1F920F920FB60F9272
:1005D00011248F938091CC008F5F8093CC008F91FA
:1005E0000F900FBE0F901F901895823419F118F4D8
:1005F000813439F008958334B1F1843409F44CC066
:100600000895413059F42AB381E090E002C0880F88
:10061000991F6A95E2F7822B8ABB08952AB381E07D
:1006200090E002C0880F991F6A95E2F780958223B7
:100630008ABB0895413059F427B381E090E002C0AD
:10064000880F991F6A95E2F7822B87BB089527B31D
:1006500081E090E002C0880F991F6A95E2F78095CB
:10066000822387BB0895413059F424B381E090E0A0
:1006700002C0880F991F6A95E2F7822B84BB089508
:1006800024B381E090E002C0880F991F6A95E2F7D9
:100690008095822384BB0895413059F421B381E0D1
:1006A00090E002C0880F991F6A95E2F7822B81BB08
:1006B000089521B381E090E002C0880F991F6A95E8
:1006C000E2F78095822381BB0895823419F118F4F2
:1006D000813439F008958334B1F1843409F44CC085
:1006E0000895413059F42BB381E090E002C0880FA7
:1006F000991F6A95E2F7822B8BBB08952BB381E09B
:1007000090E002C0880F991F6A95E2F780958223D6
:100710008BBB0895413059F428B381E090E002C0CA
:10072000880F991F6A95E2F7822B88BB089528B33A
:1007300081E090E002C0880F991F6A95E2F78095EA
:10074000822388BB0895413059F425B381E090E0BD
:1007500002C0880F991F6A95E2F7822B85BB089526
:1007600025B381E090E002C0880F991F6A95E2F7F7
:100770008095822385BB0895413059F422B381E0EE
:1007800090E002C0880F991F6A95E2F7822B82BB26
:10079000089522B381E090E002C0880F991F6A9506
:1007A000E2F78095822382BB0895823459F018F4D1
:1007B000813431F00895833439F0843439F0089568
:1007C0006BBB089568BB089565BB089562BB08952F
:1007D00083B7886083BF8EE48CBF83B7816083BF9B
:1007E00083B7846083BF789489B7826089BF089596
:0407F000F894FFCFAB
:1007F4000505050543415253204F4E205745535498
:10080400205041544800434F554C44204D4F5645C9
:10081400204E4F570072656D61696E696E672035B1
:10082400207365630043415253204F4E204E4F5274
:100834005448205041544800434152204F4E2045D3
:1008440041535420504154482000434152204F4EBC
:0C08540020534F55544820504154480098
:00000001FF
